:100000000C9446000C9465000C9465000C946500FB
:100010000C9465000C9465000C9465000C946500CC
:100020000C9465000C9465000C9465000C946500BC
:100030000C9465000C9465000C9465000C946500AC
:100040000C9465000C9465000C9465000C9465009C
:100050000C9465000C9465000C9465000C9465008C
:100060000C9465000C9465000C9465000C9465007C
:100070000C9465000C9465000C9465000C9465006C
:100080000C9465000C9465000C94650011241FBE4F
:10009000CFEFD0E1DEBFCDBF11E0A0E0B1E0E6E6FA
:1000A000FAE000E00BBF02C007900D92AC31B1073F
:1000B000D9F711E0ACE1B1E001C01D92A632B10761
:1000C000E1F70E948C000C9431050C94000010980C
:1000D000119A1AB81BB886E08093950087E689B913
:1000E0001092900088E08AB908955E9A8CB95E9B60
:1000F000FECF08955F9BFECF8CB15E9A8CB95E9B5C
:10010000FECF90E008950E94670085E790E06AE7DF
:1001100070E00E94050108958F929F92AF92BF9266
:10012000CF92DF92EF92FF920F931F93CF93DF93C3
:1001300015BE10926C000E948300C0E0D0E021E068
:10014000A22EB12CC12CD12C91E0E92EF12C012D45
:10015000112D80E0882E81E0982ECE0DDF1DC60186
:10016000B501A80197010E94E6005B016C018DB703
:100170009EB70A970FB6F8949EBF0FBE8DBFEDB71E
:10018000FEB73196ADB7BEB712969C928E9211977C
:10019000F382E282D583C483A682B782C086D186E9
:1001A0000E9451010894E11CF11C011D111D8DB725
:1001B0009EB70A960FB6F8949EBF0FBE8DBF9BE008
:1001C000E916F1040105110541F6FFCF629FD00148
:1001D000739FF001829FE00DF11D649FE00DF11D02
:1001E000929FF00D839FF00D749FF00D659FF00DB1
:1001F0009927729FB00DE11DF91F639FB00DE11D9E
:10020000F91FBD01CF01112408950F931F93CF93C0
:10021000DF938C01EB01009731F46115710519F43E
:1002200020E030E038C081E090E06EE070E00E94B5
:100230006903FC019C01009771F180E8838320979A
:1002400071F0D387C28781E8838380911C019091EC
:100250001D01892B21F4F0931D01E0931C01011570
:100260001105C9F0118700878381826083838091A3
:100270001E0190911F01892B71F4F0931F01E093EF
:100280001E018091200190912101892B21F4F0938E
:100290002101E0932001C901DF91CF911F910F91BE
:1002A0000895DF93CF93CDB7DEB7FE013596619108
:1002B000719180911E0190911F01AF010E94630115
:1002C000CF91DF9108952F923F924F925F926F925C
:1002D0007F928F929F92AF92BF92CF92DF92EF92D6
:1002E000FF920F931F93DF93CF93CDB7DEB72B977A
:1002F0000FB6F894DEBF0FBECDBF3C012B015A01F3
:10030000FC0117821682838181FD03C06FEF7FEFAE
:10031000C6C19AE0892E1E010894211C311CF301EC
:100320002381F20123FD859123FF81912F018823F1
:1003300009F4B2C1853239F423FD859123FF8191FF
:100340002F01853229F490E0B3010E94A704E7CF82
:10035000982FFF24EE249924FFE1FF15D0F09B3263
:1003600069F09C3228F4903259F0933291F40EC027
:100370009D3249F0903369F441E024C052E0F52AFF
:1003800084E0F82A28C098E0F92A25C0E0E1FE2A96
:1003900022C0F7FC29C0892F80538A3070F4F6FE02
:1003A00005C0989C902C1124980E15C0E89CE02C58
:1003B0001124E80EF0E2FF2A0EC09E3229F4F6FC6A
:1003C0006BC140E4F42A07C09C3619F450E8F52AC2
:1003D00002C0983649F4F20123FD959123FF9191D3
:1003E0002F01992309F0B8CF892F8554833018F055
:1003F0008052833038F444E050E0A40EB51E5FE331
:1004000059830FC0933631F0933779F0933509F063
:1004100056C020C0F5018081898342E050E0A40EDF
:10042000B51E610101E010E012C0F501C080D1806D
:10043000F6FC03C06FEF7FEF02C0692D70E042E071
:1004400050E0A40EB51EC6010E949C048C015FE71B
:10045000F52214C0F501C080D180F6FC03C06FEF17
:100460007FEF02C0692D70E042E050E0A40EB51E9F
:10047000C6010E948A048C0150E8F52AF3FE07C0E9
:100480001AC080E290E0B3010E94A704EA948E2D86
:1004900090E008171907A8F30EC0F601F7FC859144
:1004A000F7FE81916F0190E0B3010E94A704E11073
:1004B000EA94015010400115110579F7EAC094360D
:1004C00011F0993669F5F7FE08C0F50120813181F8
:1004D0004281538184E090E00AC0F50180819181DE
:1004E0009C01442737FD4095542F82E090E0A80EF0
:1004F000B91E9FE6F92257FF09C0509540953095E7
:1005000021953F4F4F4F5F4FE0E8FE2ACA01B901E6
:10051000A1012AE030E00E94D304D82ED21840C0B6
:10052000953729F41F2D1F7E2AE030E01DC01F2DB6
:10053000197F9F3661F0903720F4983509F0ACC0F0
:100540000FC0903739F0983709F0A6C004C028E0F2
:1005500030E00AC0106114FD146020E130E004C0F6
:1005600014FD166020E132E017FF08C0F50160813C
:1005700071818281938144E050E008C0F50180815F
:100580009181BC0180E090E042E050E0A40EB51EF5
:10059000A1010E94D304D82ED2188FE7F82EF122A1
:1005A000F6FE0BC05EEFF522D91438F4F4FE07C056
:1005B000F2FC05C08FEEF82202C01D2D01C0192DDE
:1005C000F4FE0DC0FE01ED0DF11D8081803319F4A4
:1005D00099EEF92208C01F5FF2FE05C003C08F2DFF
:1005E000867809F01F5F0F2DF3FC14C0F0FE0FC0DA
:1005F0001E1510F09D2C0BC09D2C9E0C911A1E2DCB
:1006000006C080E290E0B3010E94A7041F5F1E15A0
:10061000C0F304C01E1510F4E11A01C0EE2404FF5B
:100620000FC080E390E0B3010E94A70402FF1DC049
:1006300001FD03C088E790E00EC088E590E00BC0A4
:10064000802F867891F001FF02C08BE201C080E22A
:10065000F7FC8DE290E0B3010E94A70406C080E39E
:1006600090E0B3010E94A7049A94D914C0F3DA94DD
:10067000F101ED0DF11D808190E0B3010E94A7040E
:10068000DD20A9F706C080E290E0B3010E94A70434
:10069000EA94EE20C1F743CEF30166817781CB0166
:1006A0002B960FB6F894DEBF0FBECDBFCF91DF9172
:1006B0001F910F91FF90EF90DF90CF90BF90AF9080
:1006C0009F908F907F906F905F904F903F902F9072
:1006D00008950F931F93CF93DF93689F8001699FC5
:1006E000100D789F100D1124C8010E948503EC01A4
:1006F000009729F060E070E0A8010E949504CE0107
:10070000DF91CF911F910F910895CF93DF93BC019B
:100710008230910510F462E070E0A0912401B09164
:100720002501ED01E0E0F0E040E050E021C08881EB
:1007300099818617970769F48A819B81309719F010
:100740009383828304C09093250180932401FE014A
:1007500034C06817790738F44115510519F084172A
:10076000950708F4AC01FE018A819B819C01E90197
:100770002097E9F641155105A9F1CA01861B970B8F
:10078000049708F4BA01E0E0F0E02AC08D919C9152
:10079000119784179507F9F46417750781F4129679
:1007A0008D919C911397309719F09383828304C0A5
:1007B0009093250180932401FD0132964FC0CA0118
:1007C000861B970BFD01E80FF91F61937193029748
:1007D0008D939C9343C0FD01828193819C01D9013B
:1007E0001097A1F68091220190912301892B41F469
:1007F0008091180190911901909323018093220117
:1008000040911A0150911B014115510541F44DB71A
:100810005EB78091160190911701481B590B2091EA
:1008200022013091230124173507B0F4CA01821B3D
:10083000930B8617970780F0AB014E5F5F4F8417CD
:10084000950750F0420F531F50932301409322010C
:10085000F9016193719302C0E0E0F0E0CF01DF9114
:10086000CF910895CF93DF93009709F450C0EC0126
:1008700022971B821A82A0912401B0912501109722
:1008800009F140E050E0AC17BD0708F1BB83AA8333
:10089000FE0121913191E20FF31FAE17BF0779F4EA
:1008A0008D919C911197280F391F2E5F3F4F3983EF
:1008B000288312968D919C9113979B838A8341156F
:1008C000510571F4D0932501C093240120C01296E4
:1008D0008D919C911397AD01009711F0DC01D3CF5E
:1008E000FA01D383C28321913191E20FF31FCE1716
:1008F000DF0769F488819981280F391F2E5F3F4FE8
:10090000FA01318320838A819B8193838283DF91E3
:10091000CF910895FC010590615070400110D8F707
:10092000809590958E0F9F1F0895DC0101C06D93F7
:1009300041505040E0F70895FC0161507040019033
:100940000110D8F7809590958E0F9F1F08950F93F3
:100950001F93CF93DF938C01EB018B8181FF1BC031
:1009600082FF0DC02E813F818C819D812817390720
:1009700064F4E881F9810193F983E88306C0E8858E
:10098000F985802F0995892B31F48E819F810196FD
:100990009F838E8302C00FEF1FEFC801DF91CF91BD
:1009A0001F910F910895FA01AA27283051F12031A3
:1009B00081F1E8946F936E7F6E5F7F4F8F4F9F4FF3
:1009C000AF4FB1E03ED0B4E03CD0670F781F891F35
:1009D0009A1FA11D680F791F8A1F911DA11D6A0F03
:1009E000711D811D911DA11D20D009F468943F91B6
:1009F0002AE0269F11243019305D3193DEF6CF01B5
:100A00000895462F4770405D4193B3E00FD0C9F77A
:100A1000F6CF462F4F70405D4A3318F0495D31FDE7
:100A20004052419302D0A9F7EACFB4E0A69597953A
:100A3000879577956795BA95C9F700976105710510
:100A400008959B01AC010A2E06945795479537955A
:100A50002795BA95C9F7620F731F841F951FA01DB4
:060A60000895F894FFCF99
:100A6600693A2025642C206A3A2025642C20613AB4
:0C0A760020256C640A002000260100000E
:00000001FF
